{
  "_format": "hh-sol-artifact-1",
  "contractName": "Assessment",
  "sourceName": "contracts/Assessment.sol",
  "abi": [
    {
      "inputs": [
        {
          "internalType": "uint256",
          "name": "initBalance",
          "type": "uint256"
        }
      ],
      "stateMutability": "payable",
      "type": "constructor"
    },
    {
      "inputs": [
        {
          "internalType": "uint256",
          "name": "balance",
          "type": "uint256"
        },
        {
          "internalType": "uint256",
          "name": "withdrawAmount",
          "type": "uint256"
        }
      ],
      "name": "InsufficientBalance",
      "type": "error"
    },
    {
      "anonymous": false,
      "inputs": [
        {
          "indexed": false,
          "internalType": "uint256",
          "name": "amount",
          "type": "uint256"
        }
      ],
      "name": "Deposit",
      "type": "event"
    },
    {
      "anonymous": false,
      "inputs": [
        {
          "indexed": false,
          "internalType": "uint256",
          "name": "amount",
          "type": "uint256"
        }
      ],
      "name": "Withdraw",
      "type": "event"
    },
    {
      "anonymous": false,
      "inputs": [
        {
          "indexed": true,
          "internalType": "address",
          "name": "previousOwner",
          "type": "address"
        },
        {
          "indexed": true,
          "internalType": "address",
          "name": "newOwner",
          "type": "address"
        }
      ],
      "name": "changeOwnership",
      "type": "event"
    },
    {
      "inputs": [
        {
          "internalType": "address payable",
          "name": "_newOwner",
          "type": "address"
        }
      ],
      "name": "ChangeOwnership",
      "outputs": [],
      "stateMutability": "nonpayable",
      "type": "function"
    },
    {
      "inputs": [],
      "name": "balance",
      "outputs": [
        {
          "internalType": "uint256",
          "name": "",
          "type": "uint256"
        }
      ],
      "stateMutability": "view",
      "type": "function"
    },
    {
      "inputs": [
        {
          "internalType": "uint256",
          "name": "_amount",
          "type": "uint256"
        }
      ],
      "name": "deposit",
      "outputs": [],
      "stateMutability": "payable",
      "type": "function"
    },
    {
      "inputs": [],
      "name": "fetchBalance",
      "outputs": [
        {
          "internalType": "uint256",
          "name": "",
          "type": "uint256"
        }
      ],
      "stateMutability": "view",
      "type": "function"
    },
    {
      "inputs": [],
      "name": "getCurrentTimestamp",
      "outputs": [
        {
          "internalType": "uint256",
          "name": "",
          "type": "uint256"
        }
      ],
      "stateMutability": "view",
      "type": "function"
    },
    {
      "inputs": [
        {
          "internalType": "address",
          "name": "_address",
          "type": "address"
        }
      ],
      "name": "isOwner",
      "outputs": [
        {
          "internalType": "bool",
          "name": "",
          "type": "bool"
        }
      ],
      "stateMutability": "view",
      "type": "function"
    },
    {
      "inputs": [],
      "name": "owner",
      "outputs": [
        {
          "internalType": "address payable",
          "name": "",
          "type": "address"
        }
      ],
      "stateMutability": "view",
      "type": "function"
    },
    {
      "inputs": [
        {
          "internalType": "uint256",
          "name": "_withdrawAmount",
          "type": "uint256"
        }
      ],
      "name": "withdraw",
      "outputs": [],
      "stateMutability": "nonpayable",
      "type": "function"
    }
  ],
  "bytecode": "0x6080604052604051610c1b380380610c1b833981810160405281019061002591906100ad565b336000806101000a81548173ffffffffffffffffffffffffffffffffffffffff021916908373ffffffffffffffffffffffffffffffffffffffff16021790555080600181905550506100da565b600080fd5b6000819050919050565b61008a81610077565b811461009557600080fd5b50565b6000815190506100a781610081565b92915050565b6000602082840312156100c3576100c2610072565b5b60006100d184828501610098565b91505092915050565b610b32806100e96000396000f3fe60806040526004361061007b5760003560e01c80636c9230db1161004e5780636c9230db1461013a5780638da5cb5b14610165578063b69ef8a814610190578063b6b55f25146101bb5761007b565b80632157c46a14610080578063244ded7a146100ab5780632e1a7d4d146100d45780632f54bf6e146100fd575b600080fd5b34801561008c57600080fd5b506100956101d7565b6040516100a2919061069d565b60405180910390f35b3480156100b757600080fd5b506100d260048036038101906100cd919061071b565b6101e1565b005b3480156100e057600080fd5b506100fb60048036038101906100f69190610774565b6103a2565b005b34801561010957600080fd5b50610124600480360381019061011f91906107df565b6104f3565b6040516101319190610827565b60405180910390f35b34801561014657600080fd5b5061014f61054c565b60405161015c919061069d565b60405180910390f35b34801561017157600080fd5b5061017a610554565b6040516101879190610851565b60405180910390f35b34801561019c57600080fd5b506101a5610578565b6040516101b2919061069d565b60405180910390f35b6101d560048036038101906101d09190610774565b61057e565b005b6000600154905090565b60008054906101000a900473ffffffffffffffffffffffffffffffffffffffff1673ffffffffffffffffffffffffffffffffffffffff163373ffffffffffffffffffffffffffffffffffffffff161461026f576040517f08c379a0000000000000000000000000000000000000000000000000000000008152600401610266906108ef565b60405180910390fd5b600073ffffffffffffffffffffffffffffffffffffffff168173ffffffffffffffffffffffffffffffffffffffff16036102de576040517f08c379a00000000000000000000000000000000000000000000000000000000081526004016102d59061095b565b60405180910390fd5b60008060009054906101000a900473ffffffffffffffffffffffffffffffffffffffff169050816000806101000a81548173ffffffffffffffffffffffffffffffffffffffff021916908373ffffffffffffffffffffffffffffffffffffffff1602179055508173ffffffffffffffffffffffffffffffffffffffff168173ffffffffffffffffffffffffffffffffffffffff167fbf93a8be326d91fdb31d6ac53e007350994175cec72be9f765dcb78240d116ea60405160405180910390a35050565b60008054906101000a900473ffffffffffffffffffffffffffffffffffffffff1673ffffffffffffffffffffffffffffffffffffffff163373ffffffffffffffffffffffffffffffffffffffff1614610430576040517f08c379a0000000000000000000000000000000000000000000000000000000008152600401610427906109ed565b60405180910390fd5b6000600154905081600154101561048257600154826040517fcf479181000000000000000000000000000000000000000000000000000000008152600401610479929190610a0d565b60405180910390fd5b81600160008282546104949190610a65565b9250508190555081816104a79190610a65565b600154146104b8576104b7610a99565b5b7f5b6b431d4476a211bb7d41c20d1aab9ae2321deee0d20be3d9fc9b1093fa6e3d826040516104e7919061069d565b60405180910390a15050565b60008060009054906101000a900473ffffffffffffffffffffffffffffffffffffffff1673ffffffffffffffffffffffffffffffffffffffff168273ffffffffffffffffffffffffffffffffffffffff16149050919050565b600042905090565b60008054906101000a900473ffffffffffffffffffffffffffffffffffffffff1681565b60015481565b6000600154905060008054906101000a900473ffffffffffffffffffffffffffffffffffffffff1673ffffffffffffffffffffffffffffffffffffffff163373ffffffffffffffffffffffffffffffffffffffff1614610613576040517f08c379a000000000000000000000000000000000000000000000000000000000815260040161060a906109ed565b60405180910390fd5b81600160008282546106259190610ac8565b9250508190555081816106389190610ac8565b6001541461064957610648610a99565b5b7f4d6ce1e535dbade1c23defba91e23b8f791ce5edc0cc320257a2b364e4e3842682604051610678919061069d565b60405180910390a15050565b6000819050919050565b61069781610684565b82525050565b60006020820190506106b2600083018461068e565b92915050565b600080fd5b600073ffffffffffffffffffffffffffffffffffffffff82169050919050565b60006106e8826106bd565b9050919050565b6106f8816106dd565b811461070357600080fd5b50565b600081359050610715816106ef565b92915050565b600060208284031215610731576107306106b8565b5b600061073f84828501610706565b91505092915050565b61075181610684565b811461075c57600080fd5b50565b60008135905061076e81610748565b92915050565b60006020828403121561078a576107896106b8565b5b60006107988482850161075f565b91505092915050565b60006107ac826106bd565b9050919050565b6107bc816107a1565b81146107c757600080fd5b50565b6000813590506107d9816107b3565b92915050565b6000602082840312156107f5576107f46106b8565b5b6000610803848285016107ca565b91505092915050565b60008115159050919050565b6108218161080c565b82525050565b600060208201905061083c6000830184610818565b92915050565b61084b816106dd565b82525050565b60006020820190506108666000830184610842565b92915050565b600082825260208201905092915050565b7f596f7520617265206e6f74207468652063757272656e74206f776e6572206f6660008201527f2074686973206163636f756e7400000000000000000000000000000000000000602082015250565b60006108d9602d8361086c565b91506108e48261087d565b604082019050919050565b60006020820190508181036000830152610908816108cc565b9050919050565b7f496e76616c6964206e6577206f776e6572206164647265737300000000000000600082015250565b600061094560198361086c565b91506109508261090f565b602082019050919050565b6000602082019050818103600083015261097481610938565b9050919050565b7f596f7520617265206e6f7420746865206f776e6572206f66207468697320616360008201527f636f756e74000000000000000000000000000000000000000000000000000000602082015250565b60006109d760258361086c565b91506109e28261097b565b604082019050919050565b60006020820190508181036000830152610a06816109ca565b9050919050565b6000604082019050610a22600083018561068e565b610a2f602083018461068e565b9392505050565b7f4e487b7100000000000000000000000000000000000000000000000000000000600052601160045260246000fd5b6000610a7082610684565b9150610a7b83610684565b9250828203905081811115610a9357610a92610a36565b5b92915050565b7f4e487b7100000000000000000000000000000000000000000000000000000000600052600160045260246000fd5b6000610ad382610684565b9150610ade83610684565b9250828201905080821115610af657610af5610a36565b5b9291505056fea26469706673582212207ac69f7b3cbf3fb41ecec018e724a153ba2a95d129b46eead0a1c7ff6ca62dc364736f6c63430008110033",
  "linkReferences": {},
  "deployedLinkReferences": {}
}